:100000000C942A000C948B020C943C000C943C0041
:100010000C943C000C943C000C943C000C943C0070
:100020000C943C000C943C000C943C000C943C0060
:100030000C943C000C943C000C943C000C943C0050
:100040000C943C000C943C000C943C000C943C0040
:100050000C943C0011241FBECFE5D8E0DEBFCDBF1D
:1000600020E0A0E6B0E001C01D92A236B207E1F7A1
:100070000E942C030C9479060C94000081E080937C
:1000800061001092600060E081E40E949B0261E0E8
:1000900081E40E949B0262E081E40E949B0260E096
:1000A00082E40E949B0261E082E40E949B0262E083
:1000B00082E40E949B0262E084E40E9497020E9414
:1000C000AA02789485B7836085BF8BB780648BBFA5
:1000D0000895CF93DF93C0E0D0E05BC080916000D3
:1000E000882329F10EC061E081E40E94A70261E04B
:1000F00082E40E94A7028AEF90E00E94AC0221965F
:1001000002C0C0E0D0E0C431D1056CF362E082E40B
:100110000E949F0260E081E40E949F0288E893E1D0
:100120000E94AC0210926000C0E0D0E0B6C08091A6
:1001300061008823A1F062E082E40E949F0260E0F7
:1001400081E40E94A30262E081E40E949F028AEFA0
:1001500090E00E94AC021092600021961AC062E00A
:1001600081E40E949F0262E082E40E94A30260E0B8
:1001700082E40E949F0288E893E10E94AC0260E062
:1001800082E40E94A30281E080936100809360007A
:10019000CBCFC431D1050CF4A1CFC6CF8091600084
:1001A0008823E1F062E081E40E94A302C0E0D0E095
:1001B0000DC061E081E40E94A70261E082E40E9438
:1001C000A7028AEF90E00E94AC022196C431D105CB
:1001D00084F310926000C0E0D0E0F4C08091610030
:1001E0008823B1F062E082E40E949F0262E081E431
:1001F0000E94A30261E082E40E94A30261E081E424
:100200000E94A7028AEF90E00E94AC02219645C0AE
:1002100061E081E40E94A30261E082E40E94A30203
:1002200062E082E40E94A302C0E0D0E00DC061E081
:1002300081E40E94A70261E082E40E94A7028AEFA3
:1002400090E00E94AC022196C431D10584F361E0B4
:1002500081E40E94A30261E082E40E94A30262E0C2
:1002600082E40E94A30260E082E40E949F0262E0B6
:1002700081E40E949F0288E893E10E94AC0260E062
:1002800082E40E94A30262E081E40E94A30281E072
:1002900080936100809360009ECFC431D1050CF43F
:1002A0007DCF99CF80916000882329F10EC061E055
:1002B00081E40E94A70261E082E40E94A7028AEF23
:1002C00090E00E94AC02219602C0C0E0D0E0C431B0
:1002D000D1056CF362E082E40E949F0260E081E459
:1002E0000E949F0288E893E10E94AC021092600095
:1002F000C0E0D0E009C1809161008823B1F062E0E4
:1003000082E40E949F0262E081E40E94A30261E015
:1003100081E40E94A30260E081E40E949F028AEFD0
:1003200090E00E94AC0221964DC062E082E40E94FF
:10033000A30260E081E40E94A30261E081E40E94E4
:10034000A30261E082E40E94A302C0E0D0E00DC0FD
:1003500061E081E40E94A70261E082E40E94A702BA
:100360008AEF90E00E94AC022196C431D10584F35B
:1003700061E081E40E94A30261E082E40E94A302A2
:1003800062E082E40E94A30260E081E40E94A30292
:1003900062E081E40E949F0260E082E40E949F028A
:1003A00088E893E10E94AC0262E081E40E94A3022B
:1003B00060E082E40E94A30281E080936100809368
:1003C000600096CFC431D1050CF46CCF91CF8091F1
:1003D00060008823D1F10EC061E081E40E94A70291
:1003E00061E082E40E94A7028AEF90E00E94AC02E2
:1003F000219602C0C0E0D0E0C431D1056CF360E0CA
:1004000082E40E94A30262E082E40E949F0260E014
:1004100081E40E949F0288E893E10E94AC0260E0C0
:1004200081E40E94A302C0E0D0E009C061E081E461
:100430000E94A7028AEF90E00E94AC022196C4318C
:10044000D105A4F31092600063C0809161008823FD
:1004500091F062E082E40E949F0260E081E40E94E9
:10046000A30261E081E40E94A7028AEF90E00E946B
:10047000AC02219649C062E082E40E94A30260E0DF
:1004800081E40E94A30261E081E40E94A30261E092
:1004900082E40E94A302C0E0D0E00DC061E081E4EC
:1004A0000E94A70261E082E40E94A7028AEF90E026
:1004B0000E94AC022196C431D10584F362E082E44B
:1004C0000E94A30261E081E40E94A30261E082E451
:1004D0000E94A30260E082E40E949F0262E081E445
:1004E0000E949F0288E893E10E94AC0260E082E4EF
:1004F0000E94A30262E081E40E94A30281E0809353
:1005000061008093600004C0C431D1050CF45FCF5A
:10051000DF91CF9108951F920F920FB60F92112481
:10052000109261000F900FBE0F901F90189540E041
:100530000E943103089541E00E943103089541E093
:100540000E94AB03089540E00E94AB0308950E940F
:100550002504089513BE08958F929F92AF92BF9283
:10056000CF92DF92EF92FF92CF93DF93EC01BC0129
:1005700080E090E00E9486056B017C012FE632E16D
:1005800043E852E40E94E00488239CF4A70196010A
:100590006FE672E183E892E40E945C042FE632E1A8
:1005A00043E85EE30E94E5040E945705C1E0D0E005
:1005B00035C0C134D10579F12FE632E143E852E488
:1005C000C701B6010E94E5040E94C9040E945705B4
:1005D0004B015C01EB012FE632E143E85EE3C7012A
:1005E000B6010E94E5046B017C01B40180E090E05B
:1005F0000E9486059B01AC01C701B6010E94E5047B
:100600009B01AC0160E070E080E893E40E945C0430
:100610000E94570503C060E0C1E0D0E062BF83B72D
:10062000846083BF20E030E008C008B600FEFDCF44
:1006300088B7816088BF2F5F3F4F2C173D07A8F315
:1006400013BEDF91CF91FF90EF90DF90CF90BF90DE
:10065000AF909F908F9008950E943E000E94690085
:10066000FDCF823431F118F4813439F008958334A8
:10067000E1F1843409F454C0089541110CC02AB347
:1006800081E090E002C0880F991F6A95E2F780959B
:1006900082238ABB0895413009F05CC02AB381E00F
:1006A00090E002C0880F991F6A95E2F7822B8ABBFF
:1006B000089541110CC027B381E090E002C0880F7B
:1006C000991F6A95E2F78095822387BB0895413090
:1006D00009F040C027B381E090E002C0880F991F65
:1006E0006A95E2F7822B87BB089541110CC024B3B1
:1006F00081E090E002C0880F991F6A95E2F780952B
:10070000822384BB0895413029F524B381E090E031
:1007100002C0880F991F6A95E2F7822B84BB089567
:1007200041110CC021B381E090E002C0880F991FF5
:100730006A95E2F78095822381BB0895413051F498
:1007400021B381E090E002C0880F991F6A95E2F71B
:10075000822B81BB0895823431F118F4813439F051
:1007600008958334E1F1843409F454C008954111AB
:100770000CC02BB381E090E002C0880F991F6A95EE
:10078000E2F7809582238BBB0895413009F05CC06D
:100790002BB381E090E002C0880F991F6A95E2F7C1
:1007A000822B8BBB089541110CC028B381E090E0EF
:1007B00002C0880F991F6A95E2F78095822388BB53
:1007C0000895413009F040C028B381E090E002C0B4
:1007D000880F991F6A95E2F7822B88BB0895411113
:1007E0000CC025B381E090E002C0880F991F6A9584
:1007F000E2F78095822385BB0895413029F525B322
:1008000081E090E002C0880F991F6A95E2F7822B81
:1008100085BB089541110CC022B381E090E002C075
:10082000880F991F6A95E2F78095822382BB08950D
:10083000413051F422B381E090E002C0880F991F4B
:100840006A95E2F7822B82BB08958234A1F018F4F6
:10085000813431F008958334C9F0843411F108955E
:100860002BB381E090E002C0880F991F6A95E2F7F0
:1008700082278BBB089528B381E090E002C0880FE7
:10088000991F6A95E2F7822788BB089525B381E016
:1008900090E002C0880F991F6A95E2F7822785BB16
:1008A000089522B381E090E002C0880F991F6A95F5
:1008B000E2F7822782BB08955058BB27AA270E94DF
:1008C00074040C9427060E94190638F00E94200632
:1008D00020F039F49F3F19F426F40C9416060EF418
:1008E000E095E7FB0C94E705E92F0E94380658F3E2
:1008F000BA17620773078407950720F079F4A6F505
:100900000C9472060EF4E0950B2EBA2FA02D0B015D
:10091000B90190010C01CA01A0011124FF27591B44
:1009200099F0593F50F4503E68F11A16F040A22F4A
:10093000232F342F4427585FF3CF469537952795BB
:10094000A795F0405395C9F77EF41F16BA0B620BBA
:10095000730B840BBAF09150A1F0FF0FBB1F661F01
:10096000771F881FC2F70EC0BA0F621F731F841F44
:1009700048F4879577956795B795F7959E3F08F06A
:10098000B0CF9395880F08F09927EE0F979587952C
:1009900008950E945A0690F09F3748F4911116F47A
:1009A0000C94730660E070E080E89FE3089526F001
:1009B0001B16611D711D811D0C94ED050C9408061C
:1009C0000E94C30508F481E008950E94F9040C9484
:1009D00027060E94200658F00E94190640F029F4CC
:1009E0005F3F29F00C94E70551110C9473060C94A9
:1009F00016060E94380668F39923B1F3552391F344
:100A0000951B550BBB27AA2762177307840738F07D
:100A10009F5F5F4F220F331F441FAA1FA9F335D0DA
:100A20000E2E3AF0E0E832D091505040E695001C8E
:100A3000CAF72BD0FE2F29D0660F771F881FBB1F48
:100A4000261737074807AB07B0E809F0BB0B802D26
:100A5000BF01FF2793585F4F3AF09E3F510578F052
:100A60000C94E7050C9473065F3FE4F3983ED4F3CF
:100A7000869577956795B795F7959F5FC9F7880F26
:100A8000911D9695879597F90895E1E0660F771F78
:100A9000881FBB1F621773078407BA0720F0621B09
:100AA000730B840BBA0BEE1F88F7E09508950E9434
:100AB000400688F09F5798F0B92F9927B751B0F0AA
:100AC000E1F0660F771F881F991F1AF0BA95C9F7D2
:100AD00014C0B13091F00E947206B1E008950C94F8
:100AE0007206672F782F8827B85F39F0B93FCCF3AB
:100AF000869577956795B395D9F73EF4909580954F
:100B0000709561957F4F8F4F9F4F0895E89409C06E
:100B100097FB3EF490958095709561957F4F8F4F30
:100B20009F4F9923A9F0F92F96E9BB279395F69546
:100B3000879577956795B795F111F8CFFAF4BB0FC4
:100B400011F460FF1BC06F5F7F4F8F4F9F4F16C028
:100B5000882311F096E911C0772321F09EE8872FB2
:100B6000762F05C0662371F096E8862F70E060E06E
:100B70002AF09A95660F771F881FDAF7880F9695E7
:100B8000879597F90895990F0008550FAA0BE0E88B
:100B9000FEEF16161706E807F907C0F0121613063F
:100BA000E407F50798F0621B730B840B950B39F47F
:100BB0000A2661F0232B242B252B21F408950A26E5
:100BC00009F4A140A6958FEF811D811D089597F925
:100BD0009F6780E870E060E00895882371F47723D0
:100BE00021F09850872B762F07C0662311F49927A0
:100BF0000DC09051862B70E060E02AF09A95660F48
:100C0000771F881FDAF7880F9695879597F90895CB
:100C10009F3F31F0915020F4879577956795B79570
:100C2000880F911D9695879597F908959FEF80EC11
:100C3000089500240A941616170618060906089542
:100C400000240A9412161306140605060895092EA8
:100C50000394000C11F4882352F0BB0F40F4BF2B17
:100C600011F460FF04C06F5F7F4F8F4F9F4F089557
:100C700057FD9058440F551F59F05F3F71F047954D
:100C8000880F97FB991F61F09F3F79F08795089532
:100C9000121613061406551FF2CF4695F1DF08C051
:100CA000161617061806991FF1CF8695710561056E
:100CB000089408950E944006A0F0BEE7B91788F492
:100CC000BB279F3860F41616B11D672F782F882731
:100CD000985FF7CF869577956795B11D939596396F
:100CE000C8F30895E894BB2766277727CB0197F9C7
:060CF0000895F894FFCF07
:00000001FF
